{
  "contractName": "Voting",
  "abi": [
    {
      "anonymous": false,
      "inputs": [
        {
          "indexed": true,
          "internalType": "address",
          "name": "previousOwner",
          "type": "address"
        },
        {
          "indexed": true,
          "internalType": "address",
          "name": "newOwner",
          "type": "address"
        }
      ],
      "name": "OwnershipTransferred",
      "type": "event"
    },
    {
      "anonymous": false,
      "inputs": [
        {
          "indexed": false,
          "internalType": "uint256",
          "name": "proposalId",
          "type": "uint256"
        }
      ],
      "name": "ProposalRegistered",
      "type": "event"
    },
    {
      "anonymous": false,
      "inputs": [],
      "name": "ProposalsRegistrationEnded",
      "type": "event"
    },
    {
      "anonymous": false,
      "inputs": [],
      "name": "ProposalsRegistrationStarted",
      "type": "event"
    },
    {
      "anonymous": false,
      "inputs": [
        {
          "indexed": false,
          "internalType": "address",
          "name": "voter",
          "type": "address"
        },
        {
          "indexed": false,
          "internalType": "uint256",
          "name": "proposalId",
          "type": "uint256"
        }
      ],
      "name": "Voted",
      "type": "event"
    },
    {
      "anonymous": false,
      "inputs": [
        {
          "indexed": false,
          "internalType": "address",
          "name": "voterAddress",
          "type": "address"
        }
      ],
      "name": "VoterRegistered",
      "type": "event"
    },
    {
      "anonymous": false,
      "inputs": [],
      "name": "VotesTallied",
      "type": "event"
    },
    {
      "anonymous": false,
      "inputs": [],
      "name": "VotingSessionEnded",
      "type": "event"
    },
    {
      "anonymous": false,
      "inputs": [],
      "name": "VotingSessionStarted",
      "type": "event"
    },
    {
      "anonymous": false,
      "inputs": [
        {
          "indexed": false,
          "internalType": "enum Voting.WorkflowStatus",
          "name": "previousStatus",
          "type": "uint8"
        },
        {
          "indexed": false,
          "internalType": "enum Voting.WorkflowStatus",
          "name": "newStatus",
          "type": "uint8"
        }
      ],
      "name": "WorkflowStatusChange",
      "type": "event"
    },
    {
      "constant": true,
      "inputs": [],
      "name": "Admin",
      "outputs": [
        {
          "internalType": "address",
          "name": "",
          "type": "address"
        }
      ],
      "payable": false,
      "stateMutability": "view",
      "type": "function"
    },
    {
      "constant": true,
      "inputs": [],
      "name": "isOwner",
      "outputs": [
        {
          "internalType": "bool",
          "name": "",
          "type": "bool"
        }
      ],
      "payable": false,
      "stateMutability": "view",
      "type": "function"
    },
    {
      "constant": true,
      "inputs": [],
      "name": "owner",
      "outputs": [
        {
          "internalType": "address",
          "name": "",
          "type": "address"
        }
      ],
      "payable": false,
      "stateMutability": "view",
      "type": "function"
    },
    {
      "constant": true,
      "inputs": [
        {
          "internalType": "uint256",
          "name": "",
          "type": "uint256"
        }
      ],
      "name": "proposals",
      "outputs": [
        {
          "internalType": "string",
          "name": "name",
          "type": "string"
        },
        {
          "internalType": "uint256",
          "name": "voteCount",
          "type": "uint256"
        }
      ],
      "payable": false,
      "stateMutability": "view",
      "type": "function"
    },
    {
      "constant": false,
      "inputs": [],
      "name": "renounceOwnership",
      "outputs": [],
      "payable": false,
      "stateMutability": "nonpayable",
      "type": "function"
    },
    {
      "constant": false,
      "inputs": [
        {
          "internalType": "address",
          "name": "newOwner",
          "type": "address"
        }
      ],
      "name": "transferOwnership",
      "outputs": [],
      "payable": false,
      "stateMutability": "nonpayable",
      "type": "function"
    },
    {
      "constant": true,
      "inputs": [
        {
          "internalType": "address",
          "name": "",
          "type": "address"
        }
      ],
      "name": "voters",
      "outputs": [
        {
          "internalType": "bool",
          "name": "isRegistered",
          "type": "bool"
        },
        {
          "internalType": "bool",
          "name": "hasVoted",
          "type": "bool"
        },
        {
          "internalType": "uint256",
          "name": "votedProposalId",
          "type": "uint256"
        }
      ],
      "payable": false,
      "stateMutability": "view",
      "type": "function"
    },
    {
      "constant": true,
      "inputs": [],
      "name": "workflowStatus",
      "outputs": [
        {
          "internalType": "enum Voting.WorkflowStatus",
          "name": "",
          "type": "uint8"
        }
      ],
      "payable": false,
      "stateMutability": "view",
      "type": "function"
    },
    {
      "constant": false,
      "inputs": [],
      "name": "nextStage",
      "outputs": [],
      "payable": false,
      "stateMutability": "nonpayable",
      "type": "function"
    },
    {
      "constant": false,
      "inputs": [
        {
          "internalType": "address",
          "name": "voterAddress",
          "type": "address"
        }
      ],
      "name": "isRegistered",
      "outputs": [],
      "payable": false,
      "stateMutability": "nonpayable",
      "type": "function"
    },
    {
      "constant": true,
      "inputs": [],
      "name": "getStatus",
      "outputs": [
        {
          "internalType": "enum Voting.WorkflowStatus",
          "name": "",
          "type": "uint8"
        }
      ],
      "payable": false,
      "stateMutability": "view",
      "type": "function"
    },
    {
      "constant": false,
      "inputs": [
        {
          "internalType": "string",
          "name": "names",
          "type": "string"
        }
      ],
      "name": "proposer",
      "outputs": [],
      "payable": false,
      "stateMutability": "nonpayable",
      "type": "function"
    },
    {
      "constant": false,
      "inputs": [
        {
          "internalType": "address",
          "name": "voterAddress",
          "type": "address"
        },
        {
          "internalType": "uint256",
          "name": "votedProposalId",
          "type": "uint256"
        }
      ],
      "name": "vote",
      "outputs": [],
      "payable": false,
      "stateMutability": "nonpayable",
      "type": "function"
    },
    {
      "constant": true,
      "inputs": [],
      "name": "getVote",
      "outputs": [
        {
          "internalType": "uint256",
          "name": "votedProposalId",
          "type": "uint256"
        }
      ],
      "payable": false,
      "stateMutability": "view",
      "type": "function"
    },
    {
      "constant": true,
      "inputs": [],
      "name": "winningProposalID",
      "outputs": [
        {
          "internalType": "uint256",
          "name": "winningProposalID_",
          "type": "uint256"
        }
      ],
      "payable": false,
      "stateMutability": "view",
      "type": "function"
    },
    {
      "constant": true,
      "inputs": [],
      "name": "winnerName",
      "outputs": [
        {
          "internalType": "string",
          "name": "winnerName_",
          "type": "string"
        }
      ],
      "payable": false,
      "stateMutability": "view",
      "type": "function"
    }
  ],
  "bytecode": "0x60806040526000600460006101000a81548160ff0219169083600581111561002357fe5b021790555060006100386100db60201b60201c565b9050806000806101000a81548173ffffffffffffffffffffffffffffffffffffffff021916908373ffffffffffffffffffffffffffffffffffffffff1602179055508073ffffffffffffffffffffffffffffffffffffffff16600073ffffffffffffffffffffffffffffffffffffffff167f8be0079c531659141344cd1fd0a4f28419497f9722a3daafe3b4186f6b6457e060405160405180910390a3506100e3565b600033905090565b611729806100f26000396000f3fe608060405234801561001057600080fd5b50600436106101005760003560e01c8063a3ec138d11610097578063e2ba53f011610066578063e2ba53f014610478578063ee3743ab146104fb578063f2fde38b14610505578063ff1b636d1461054957610100565b8063a3ec138d146102ed578063ab31e9ae1461035b578063bdc0143114610416578063c3c5a5471461043457610100565b8063715018a6116100d3578063715018a61461024b5780638da5cb5b146102555780638f32d59b1461029f578063a1edffa2146102c157610100565b8063013cf08b146101055780630242f351146101b35780634e69d560146101d15780635f74bbde146101fd575b600080fd5b6101316004803603602081101561011b57600080fd5b8101908080359060200190929190505050610593565b6040518080602001838152602001828103825284818151815260200191508051906020019080838360005b8381101561017757808201518184015260208101905061015c565b50505050905090810190601f1680156101a45780820380516001836020036101000a031916815260200191505b50935050505060405180910390f35b6101bb61065c565b6040518082815260200191505060405180910390f35b6101d9610664565b604051808260058111156101e957fe5b60ff16815260200191505060405180910390f35b6102496004803603604081101561021357600080fd5b81019080803573ffffffffffffffffffffffffffffffffffffffff1690602001909291908035906020019092919050505061067b565b005b61025361094a565b005b61025d610a83565b604051808273ffffffffffffffffffffffffffffffffffffffff1673ffffffffffffffffffffffffffffffffffffffff16815260200191505060405180910390f35b6102a7610aac565b604051808215151515815260200191505060405180910390f35b6102c9610b0a565b604051808260058111156102d957fe5b60ff16815260200191505060405180910390f35b61032f6004803603602081101561030357600080fd5b81019080803573ffffffffffffffffffffffffffffffffffffffff169060200190929190505050610b1d565b604051808415151515815260200183151515158152602001828152602001935050505060405180910390f35b6104146004803603602081101561037157600080fd5b810190808035906020019064010000000081111561038e57600080fd5b8201836020820111156103a057600080fd5b803590602001918460018302840111640100000000831117156103c257600080fd5b91908080601f016020809104026020016040519081016040528093929190818152602001838380828437600081840152601f19601f820116905080830192505050505050509192919290505050610b61565b005b61041e610d0e565b6040518082815260200191505060405180910390f35b6104766004803603602081101561044a57600080fd5b81019080803573ffffffffffffffffffffffffffffffffffffffff169060200190929190505050610e0d565b005b610480610fd3565b6040518080602001828103825283818151815260200191508051906020019080838360005b838110156104c05780820151818401526020810190506104a5565b50505050905090810190601f1680156104ed5780820380516001836020036101000a031916815260200191505b509250505060405180910390f35b610503611098565b005b6105476004803603602081101561051b57600080fd5b81019080803573ffffffffffffffffffffffffffffffffffffffff169060200190929190505050611404565b005b61055161148a565b604051808273ffffffffffffffffffffffffffffffffffffffff1673ffffffffffffffffffffffffffffffffffffffff16815260200191505060405180910390f35b600381815481106105a057fe5b9060005260206000209060020201600091509050806000018054600181600116156101000203166002900480601f01602080910402602001604051908101604052809291908181526020018280546001816001161561010002031660029004801561064c5780601f106106215761010080835404028352916020019161064c565b820191906000526020600020905b81548152906001019060200180831161062f57829003601f168201915b5050505050908060010154905082565b600080905090565b6000600460009054906101000a900460ff16905090565b6000600260003373ffffffffffffffffffffffffffffffffffffffff1673ffffffffffffffffffffffffffffffffffffffff1681526020019081526020016000209050600360058111156106cb57fe5b60058111156106d657fe5b600460009054906101000a900460ff1660058111156106f157fe5b14610764576040517f08c379a00000000000000000000000000000000000000000000000000000000081526004018080602001828103825260208152602001807f6c6520766f7465206e27612070617320656e636f726520636f6d6d656e63c3a981525060200191505060405180910390fd5b6004600581111561077157fe5b600581111561077c57fe5b600460009054906101000a900460ff16600581111561079757fe5b141561080b576040517f08c379a00000000000000000000000000000000000000000000000000000000081526004018080602001828103825260178152602001807f6c6520766f7465206573742064c3a96ac3a02066696e6900000000000000000081525060200191505060405180910390fd5b8060000160019054906101000a900460ff1615610890576040517f08c379a000000000000000000000000000000000000000000000000000000000815260040180806020018281038252600f8152602001807f612064c3a96ac3a020766f74c3a92e000000000000000000000000000000000081525060200191505060405180910390fd5b60018160000160016101000a81548160ff0219169083151502179055506001600383815481106108bc57fe5b9060005260206000209060020201600101600082825401925050819055507f4d99b957a2bc29a30ebd96a7be8e68fe50a3c701db28a91436490b7d53870ca48383604051808373ffffffffffffffffffffffffffffffffffffffff1673ffffffffffffffffffffffffffffffffffffffff1681526020018281526020019250505060405180910390a1505050565b610952610aac565b6109c4576040517f08c379a00000000000000000000000000000000000000000000000000000000081526004018080602001828103825260208152602001807f4f776e61626c653a2063616c6c6572206973206e6f7420746865206f776e657281525060200191505060405180910390fd5b600073ffffffffffffffffffffffffffffffffffffffff166000809054906101000a900473ffffffffffffffffffffffffffffffffffffffff1673ffffffffffffffffffffffffffffffffffffffff167f8be0079c531659141344cd1fd0a4f28419497f9722a3daafe3b4186f6b6457e060405160405180910390a360008060006101000a81548173ffffffffffffffffffffffffffffffffffffffff021916908373ffffffffffffffffffffffffffffffffffffffff160217905550565b60008060009054906101000a900473ffffffffffffffffffffffffffffffffffffffff16905090565b60008060009054906101000a900473ffffffffffffffffffffffffffffffffffffffff1673ffffffffffffffffffffffffffffffffffffffff16610aee6114b0565b73ffffffffffffffffffffffffffffffffffffffff1614905090565b600460009054906101000a900460ff1681565b60026020528060005260406000206000915090508060000160009054906101000a900460ff16908060000160019054906101000a900460ff16908060010154905083565b6000600260003373ffffffffffffffffffffffffffffffffffffffff1673ffffffffffffffffffffffffffffffffffffffff16815260200190815260200160002090508060000160009054906101000a900460ff16610bbc57fe5b60016005811115610bc957fe5b6005811115610bd457fe5b600460009054906101000a900460ff166005811115610bef57fe5b14610bf657fe5b60026005811115610c0357fe5b6005811115610c0e57fe5b600460009054906101000a900460ff166005811115610c2957fe5b1415610c9d576040517f08c379a000000000000000000000000000000000000000000000000000000000815260040180806020018281038252601c8152602001807f6c65206465706f74206e2065737420706c757320706f737369626c650000000081525060200191505060405180910390fd5b600360405180604001604052808481526020016000815250908060018154018082558091505090600182039060005260206000209060020201600090919290919091506000820151816000019080519060200190610cfc9291906115fc565b50602082015181600101555050505050565b6000600580811115610d1c57fe5b6005811115610d2757fe5b600460009054906101000a900460ff166005811115610d4257fe5b14610d98576040517f08c379a000000000000000000000000000000000000000000000000000000000815260040180806020018281038252602d8152602001806116c8602d913960400191505060405180910390fd5b600080905060008090505b600380549050811015610e08578160038281548110610dbe57fe5b9060005260206000209060020201600101541115610dfb5760038181548110610de357fe5b90600052602060002090600202016001015491508092505b8080600101915050610da3565b505090565b610e15610aac565b610e87576040517f08c379a00000000000000000000000000000000000000000000000000000000081526004018080602001828103825260208152602001807f4f776e61626c653a2063616c6c6572206973206e6f7420746865206f776e657281525060200191505060405180910390fd5b6000600260003373ffffffffffffffffffffffffffffffffffffffff1673ffffffffffffffffffffffffffffffffffffffff16815260200190815260200160002090508060000160009054906101000a900460ff1615610f4f576040517f08c379a000000000000000000000000000000000000000000000000000000000815260040180806020018281038252601b8152602001807f7573616765722064c3a96ac3a020656e72656e6769737472c3a921000000000081525060200191505060405180910390fd5b60018160000160006101000a81548160ff0219169083151502179055507fb6be2187d059cc2a55fe29e0e503b566e1e0f8c8780096e185429350acffd3dd82604051808273ffffffffffffffffffffffffffffffffffffffff1673ffffffffffffffffffffffffffffffffffffffff16815260200191505060405180910390a15050565b60606003610fdf610d0e565b81548110610fe957fe5b90600052602060002090600202016000018054600181600116156101000203166002900480601f01602080910402602001604051908101604052809291908181526020018280546001816001161561010002031660029004801561108e5780601f106110635761010080835404028352916020019161108e565b820191906000526020600020905b81548152906001019060200180831161107157829003601f168201915b5050505050905090565b6110a0610aac565b611112576040517f08c379a00000000000000000000000000000000000000000000000000000000081526004018080602001828103825260208152602001807f4f776e61626c653a2063616c6c6572206973206e6f7420746865206f776e657281525060200191505060405180910390fd5b6001600460009054906101000a900460ff16600581111561112f57fe5b01600581111561113b57fe5b600460006101000a81548160ff0219169083600581111561115857fe5b02179055506001600581111561116a57fe5b600581111561117557fe5b600460009054906101000a900460ff16600581111561119057fe5b14156111c3577f344c25562921d075a298d34b6dd1fd00d36ff293974539dfd4a8c625d9f0064c60405160405180910390a15b600260058111156111d057fe5b60058111156111db57fe5b600460009054906101000a900460ff1660058111156111f657fe5b1415611229577f240cb87b2e4df4c318e72bd714d45a9cad60249e883ff56b1fffd83a4595a8fa60405160405180910390a15b6003600581111561123657fe5b600581111561124157fe5b600460009054906101000a900460ff16600581111561125c57fe5b141561128f577f1b8e19a458c1bcd88553332c518cc5c4e2d5793e712ee766d4f1c14f672ef1f560405160405180910390a15b6004600581111561129c57fe5b60058111156112a757fe5b600460009054906101000a900460ff1660058111156112c257fe5b14156112f5577fc379d349a6301baf50fb2f98d829f4ae10b1cdb7c66f4e4d8117302df7b8cd4c60405160405180910390a15b60058081111561130157fe5b600581111561130c57fe5b600460009054906101000a900460ff16600581111561132757fe5b141561135a577f0e5e95ff8725ab3e7a4b6b59998a4c344c2aa8d1485f5e60cb7f337768e6134760405160405180910390a15b7f0a97a4ee45751e2abf3e4fc8946939630b11b371ea8ae39ccdc3056e98f5cc3f6001600460009054906101000a900460ff16600581111561139857fe5b0360058111156113a457fe5b600460009054906101000a900460ff1660058111156113bf57fe5b60058111156113ca57fe5b604051808360058111156113da57fe5b60ff1681526020018260058111156113ee57fe5b60ff1681526020019250505060405180910390a1565b61140c610aac565b61147e576040517f08c379a00000000000000000000000000000000000000000000000000000000081526004018080602001828103825260208152602001807f4f776e61626c653a2063616c6c6572206973206e6f7420746865206f776e657281525060200191505060405180910390fd5b611487816114b8565b50565b600160009054906101000a900473ffffffffffffffffffffffffffffffffffffffff1681565b600033905090565b600073ffffffffffffffffffffffffffffffffffffffff168173ffffffffffffffffffffffffffffffffffffffff16141561153e576040517f08c379a00000000000000000000000000000000000000000000000000000000081526004018080602001828103825260268152602001806116a26026913960400191505060405180910390fd5b8073ffffffffffffffffffffffffffffffffffffffff166000809054906101000a900473ffffffffffffffffffffffffffffffffffffffff1673ffffffffffffffffffffffffffffffffffffffff167f8be0079c531659141344cd1fd0a4f28419497f9722a3daafe3b4186f6b6457e060405160405180910390a3806000806101000a81548173ffffffffffffffffffffffffffffffffffffffff021916908373ffffffffffffffffffffffffffffffffffffffff16021790555050565b828054600181600116156101000203166002900490600052602060002090601f016020900481019282601f1061163d57805160ff191683800117855561166b565b8280016001018555821561166b579182015b8281111561166a57825182559160200191906001019061164f565b5b509050611678919061167c565b5090565b61169e91905b8082111561169a576000816000905550600101611682565b5090565b9056fe4f776e61626c653a206e6577206f776e657220697320746865207a65726f20616464726573736c6520636f6d7074616765206e206573742070617320706f737369626c6520706f7572206c65206d6f6d656e74a265627a7a72315820428996c26509e6f3bea4a642f5fffeff3d73f40d7883d1d237f37537fa9a19b164736f6c63430005100032",
  "source": "//⚡️ Défi - Système de vote\n// SPDX-License-Identifier: MIT\npragma solidity 0.5.16;\n//import \"https://github.com/OpenZeppelin/openzeppelin/contracts/access/Ownable.sol\";\n//import \"https://github.com/OpenZeppelin/openzeppelin-contracts/blob/master/contracts/access/Ownable.sol\";\n//import \"https://github.com/OpenZeppelin/openzeppelin-contracts-upgradeable/blob/master/contracts/access/OwnableUpgradeable.sol\";\nimport \"@openzeppelin/contracts/ownership/Ownable.sol\";\n\n\ncontract Voting is Ownable{\naddress public Admin;\nmapping(address => Voter) public voters;\n\n// Type pour une proposition.\nstruct Proposal {\nstring name;\nuint voteCount;}\n\nstruct Voter {\nbool isRegistered;\nbool hasVoted;\nuint votedProposalId;}\n\n// Un tableau dynamique de structs `Proposal`.\nProposal[] public proposals;\n\nevent VoterRegistered(address voterAddress);\nevent ProposalsRegistrationStarted();\nevent ProposalsRegistrationEnded();\nevent ProposalRegistered(uint proposalId);\nevent VotingSessionStarted();\nevent VotingSessionEnded();\nevent Voted (address voter, uint proposalId);\nevent VotesTallied();\n\n\nenum WorkflowStatus {\nRegisteringVoters,\nProposalsRegistrationStarted,\nProposalsRegistrationEnded,\nVotingSessionStarted,\nVotingSessionEnded,\nVotesTallied\n}\n\nevent WorkflowStatusChange(WorkflowStatus previousStatus, WorkflowStatus newStatus);      \n WorkflowStatus public workflowStatus= WorkflowStatus.RegisteringVoters;\n \nfunction nextStage() public onlyOwner {\n   workflowStatus = WorkflowStatus((uint(workflowStatus) + 1));\n\n    \n   if (workflowStatus == WorkflowStatus(1)) { emit ProposalsRegistrationStarted();}\n   if (workflowStatus == WorkflowStatus(2)) { emit ProposalsRegistrationEnded();}\n   if (workflowStatus == WorkflowStatus(3)) { emit VotingSessionStarted();}\n   if (workflowStatus == WorkflowStatus(4)) { emit VotingSessionEnded();}\n   if (workflowStatus == WorkflowStatus(5)) { emit VotesTallied();}\n\nemit WorkflowStatusChange(WorkflowStatus(uint(workflowStatus)-1),WorkflowStatus( uint(workflowStatus) ) );}\n\nfunction isRegistered(address voterAddress) public onlyOwner {\n            Voter storage sender = voters[msg.sender];\n            require(!sender.isRegistered, \"usager déjà enrengistré!\");\n            sender.isRegistered = true;\n            emit VoterRegistered(voterAddress); \n}    \n\nfunction getStatus() public view returns (WorkflowStatus) {\n    return workflowStatus;\n}\n\n\n    function proposer(string  memory names) public {\n            Voter storage sender = voters[msg.sender];\n   assert(sender.isRegistered);\n   assert((workflowStatus ==WorkflowStatus(1)));\n   require(!(workflowStatus == WorkflowStatus(2)),\"le depot n est plus possible\");\n                  proposals.push(Proposal({\n                name: names,\n                voteCount: 0\n            }));\n            }\n  \n    /// \n    function vote(address voterAddress,uint votedProposalId) public {\n\n        Voter storage sender = voters[msg.sender];\n\t\t\n\t\trequire((workflowStatus == WorkflowStatus(3)),\"le vote n'a pas encore commencé\");\n\t\trequire(!(workflowStatus == WorkflowStatus(4)),\"le vote est déjà fini\");\n        \n\t\trequire(!sender.hasVoted, \"a déjà voté.\");\n \t    sender.hasVoted= true;\n      //  sender.vote= votedProposalId;\n\n        // Si `votedProposalId` n'est pas un index valide,\n        // une erreur sera levée et l'exécution annulée\n        proposals[votedProposalId].voteCount += 1;\n\t\temit Voted (voterAddress, votedProposalId);\n    }\n function getVote() public view returns (uint votedProposalId) {\n    return votedProposalId;\n}     \t\n\n    ///  Calcule la proposition gagnante\n    /// en prenant tous les votes précédents en compte.\n    function winningProposalID() public view\n            returns (uint winningProposalID_)\n    {require((workflowStatus == WorkflowStatus(5)),\"le comptage n est pas possible pour le moment\");\n            uint winningVoteCount = 0;\n               for (uint p = 0; p < proposals.length; p++) {\n            if (proposals[p].voteCount > winningVoteCount) {\n                winningVoteCount = proposals[p].voteCount;\n                winningProposalID_ = p;\n             } \n        }\n    }\n\t\n\t\n\n     function winnerName() public view\n            returns (string memory winnerName_)\n    {\n        winnerName_ = proposals[winningProposalID()].name;\n    }\n}",
  "sourcePath": "C:/whitelist-react-box-master/contracts/Voting.sol",
  "compiler": {
    "name": "solc",
    "version": "0.5.16+commit.9c3226ce.Emscripten.clang"
  },
  "schemaVersion": "3.3.3",
  "updatedAt": "2021-02-12T02:16:19.511Z",
  "devdoc": {
    "methods": {
      "isOwner()": {
        "details": "Returns true if the caller is the current owner."
      },
      "owner()": {
        "details": "Returns the address of the current owner."
      },
      "renounceOwnership()": {
        "details": "Leaves the contract without owner. It will not be possible to call `onlyOwner` functions anymore. Can only be called by the current owner.     * NOTE: Renouncing ownership will leave the contract without an owner, thereby removing any functionality that is only available to the owner."
      },
      "transferOwnership(address)": {
        "details": "Transfers ownership of the contract to a new account (`newOwner`). Can only be called by the current owner."
      }
    }
  },
  "userdoc": {
    "methods": {
      "winningProposalID()": {
        "notice": "Calcule la proposition gagnante en prenant tous les votes précédents en compte."
      }
    }
  }
}